S0150000736B657463685F6A756C3230612E7372656320
S11300000C9415020C9407220C942E220C943D029D
S11300100C943D020C943D020C943D020C94D607C2
S11300200C943D020C943D020C943D020C943D0250
S11300300C943D020C943D020C943D020C943D0240
S11300400C9456180C943D020C944E150C94801587
S11300500C943D020C943D020C943D020C943F021E
S11300600C943D020C943D0207634236B79BD8A71B
S11300701A39685618AEBAAB558C1D3CB7CC5763C9
S1130080BD6DEDFD753EF6177231BF000000803F77
S113009008000000BE922449123EABAAAA2ABECD93
S11300A0CCCC4C3E00000080BEABAAAAAA3E000005
S11300B00000BF000000803F0000000000084178FD
S11300C0D3BB4387D1133D190E3CC3BD4282AD2B34
S11300D03E68EC8276BED98FE1A93E4C80EFFFBE2C
S11300E001C4FF7F3F000000000050756D70204385
S11300F0616C6962726174696F6E206973206661F4
S1130100696C0050756D702043616C696272617432
S1130110696F6E20697320646F6E6500312E320042
S1130120312E31004661756C74207061636B6574A7
S113013020697320617661696C61626C6500507539
S11301406D70206973206F6E0050756D7020697337
S1130150206F66660050756D70206C696E65206650
S113016061756C74200050756D70206C696E65202B
S11301706661756C74200050756D70204973204E53
S11301806F7420576F726B696E6720312E2E2E2E7E
S11301902E2E2E2E2E2E2E0050756D70204973207B
S11301A04E6F7420576F726B696E67200050756DC7
S11301B070204472792052756E200050756D702045
S11301C04472792052756E200050756D70204F7600
S11301D065726C616F6465640050756D70204F7654
S11301E065726C616F64656420002043616C6962B0
S11301F0617274696F6E207374617475732000206A
S11302004661756C7420436F756E746572200020AE
S113021050756D70204E6F6D696E616C2043757200
S113022072656E74200050756D702052756E204397
S1130230757272656E742000736574207570206623
S1130240696E69736865640049643A2000535441D7
S1130250525400537072656164696E67206661630D
S1130260746F72206973203A20004C6F72612054BD
S11302707820706F776572206973203A2000636F6D
S11302806E666967206661696C65640073657420D5
S11302906672657175656E6379206661696C656403
S11302A02100696E6974206661696C65642100616E
S11302B0636B2069733A2000726639352E77616961
S11302C0745061636B657453656E74282920310022
S11302D0726639352E617661696C61626C652829B4
S11302E020310061636B2069733A200072663935EE
S11302F02E776169745061636B657453656E7428FD
S113030029203200726639352E617661696C61622A
S11303106C65282920320073656E64206261636B0A
S113032020320073656E64206261636B203100705B
S1130330756D70206973206F66660052657175650E
S1130340737420746F207475726E204F464620506B
S1130350554D503A200070756D70206973204F4ED2
S1130360005265717565737420746F207475726EB4
S1130370204F4E2050554D503A200043616C696225
S1130380726174696F6E206F662050554D503A202B
S1130390005061636B657420617661696C61626CA5
S11303A0652E2E2E002050756D70204661756C747C
S11303B0204F63637572652000000000080002018D
S11303C00000030407000000000000000001020414
S11303D008102040800102040810200102040810C3
S11303E020040404040404040402020202020203BA
S11303F00303030303000000002300260029000078
S1130400000000250028002B000000000024002725
S1130410002A0072740492740448940478C40C7220
S1130420B404670B7C0FB015021D11241FBECFEF5F
S1130430D8E0DEBFCDBF13E0A0E0B1E0E2E9FDE427
S113044002C005900D92A630B107D9F727E0A6E0C7
S1130450B3E001C01D92AD37B207E1F712E0C5E188
S1130460D2E004C02197FE010E94B324C131D10718
S1130470C9F70E94DE150C94C7260C9400001F9245
S11304800F920FB60F9211242F933F934F935F93C4
S11304906F937F938F939F93AF93BF93EF93FF9348
S11304A0E0910603F09107030995FF91EF91BF9145
S11304B0AF919F918F917F916F915F914F913F91F8
S11304C02F910F900FBE0F901F901895FF920F93CE
S11304D01F93CF93DF93EC01F62E08811981C80195
S11304E00E94A926F81621F06F2DC8010E94B1269A
S11304F0CE01DF91CF911F910F91FF9008952F921C
S11305003F924F925F926F927F928F929F92AF929F
S1130510BF92CF92DF92EF92FF920F931F93CF93EC
S1130520DF93CDB7DEB76A970FB6F894DEBF0FBE80
S1130530CDBF80914F0580FFCCC091E090937005B2
S11305408E7F80934F050E94A0186F8B788F898FC0
S11305509A8F1E0125E1220E311CAE014F5F5F4FC1
S11305606A018A0168EC75E085ED94E00E945E1AE8
S1130570F80161937193819391938F012E163F0635
S113058089F700E00F5F102F153031F4F4E0CF0E3F
S1130590D11C0530B9F728C0F60180809180A28073
S11305A0B380EE24E394F12CEC0EFD1EF4E01F9FC7
S11305B0E00CF11C1124F7014080518062807380AB
S11305C0A3019201C501B4010E94CE11181654F47E
S11305D0F6014082518262827382F70180829182A5
S11305E0A282B3821F5FD0CF69857A858B859C8573
S11305F060933505709336058093370590933805DD
S113060020E030E040E050E40E94CE11181664F57A
S113061095E3E92E95E0F92E01E010E0F7016191F0
S11306207F011E8B0D8BC1010E9466020F5F1F4F5D
S11306300530110599F781E3E82E85E0F82E01E0F5
S113064010E0C8010E94A926F70181937F010F5F82
S11306501F4F05301105A9F763E071E081EC96E0C6
S11306600E945D1681E013C00E94A018DC01CB013A
S11306702F89388D498D5A8D821B930BA40BB50B92
S113068088359B41A105B10508F467CF80E010923D
S11306907005882391F081E080935B0582E090E00F
S11306A09E8B8D8B61E0C1010E9466028091500592
S11306B08D7F8160809350050CC06AEE70E081EC00
S11306C096E00E945D16809150058E7F8260809333
S11306D0500580E090E06A960FB6F894DEBF0FBE36
S11306E0CDBFDF91CF911F910F91FF90EF90DF90DD
S11306F0CF90BF90AF909F908F907F906F905F90BE
S11307004F903F902F90089580914B0580FF05C036
S113071060E081E10E94CD1904C061E081E10E94A2
S1130720CD1980914B0581FF05C060E082E10E94F4
S1130730CD1904C061E082E10E94CD1980914B057E
S113074082FF05C060E083E10E94CD1904C061E02E
S113075083E10E94CD1980914B0590914C059C0139
S113076028733270232B41F49C01237033272330E8
S1130770310511F482FD05C060E083E00E94CD19CB
S113078004C061E083E00E94CD1980914B059091F3
S11307904C059C01237033272330310531F482FF4B
S11307A004C060E087E00C94CD1961E087E00C940C
S11307B0CD1984E00E94FC1921E0892B09F420E082
S11307C0822F08958F929F92AF92BF92CF92DF9221
S11307D0EF92FF92CF93DF93809171059091720510
S11307E08D32914038F0109272051092710581E0BB
S11307F00E94150D80914D0590914E05892B09F4A9
S113080079C080910D0390910E03A0910F03B091D4
S11308101003892B8A2B8B2B71F010920D031092ED
S11308200E0310920F031092100380910C038F5F3C
S113083080930C0302C010920C0381E08093700536
S113084010924E0510924D0568EC75E085ED94E02C
S11308500E945E1A609335057093360580933705C0
S1130860909338051092700566E272E081EC96E090
S11308700E945D164091350550913605609137050B
S11308807091380522E030E081EC96E00E94441833
S11308906FE072E081EC96E00E945D1640913105B4
S11308A050913205609133057091340522E030E0B7
S11308B081EC96E00E9444186FEF71E081EC96E0C1
S11308C00E945D166091590570915A054AE050E006
S11308D081EC96E00E94F6166AEE71E081EC96E0F7
S11308E00E945D164AE050E060915B0581EC96E061
S11308F00E94DE160E94D90320914B0530914C05CD
S1130900882349F0813069F42F77316030934C05A6
S113091020934B0506C03E7F206830934C052093FE
S11309204B05C0903105D0903205E0903305F0902E
S1130930340520E030E048EC52E4C701B6010E94DF
S1130940741020E030E040E052E40E94D311A7018B
S113095096010E9403109B01AC01609135057091D2
S1130960360580913705909138050E94CE1120916B
S11309704B0530914C051816ECF580915905909172
S11309805A0589379105B0F180915B05813091F565
S113099025FD4BC080E290E0A0E0B0E080930D0321
S11309A090930E03A0930F03B093100369ED71E0CD
S11309B081EC96E00E945D164AE050E060910C03E1
S11309C081EC96E00E94DE1680910C03843068F17D
S11309D080914B0590914C05806290934C058093D7
S11309E04B0510920C0369EC71E081EC96E00E94D7
S11309F05D161BC02F7D30934C0520934B058091D1
S1130A000D0390910E03A0910F03B09110038097F2
S1130A10A105B10551F410920C0310920D0310922C
S1130A200E0310920F0310921003C0903505D0905E
S1130A303605E0903705F090380520E030E048ECCA
S1130A4052E46091310570913205809133059091A3
S1130A5034050E9474104B015C0120E030E048E64C
S1130A6052E40E94D3119B01AC01C701B6010E945C
S1130A706F10C0914B05D0914C0587FF61C08091E8
S1130A80590590915A058937910508F459C0809108
S1130A905B05813009F054C020E030E040E751E4C8
S1130AA0C501B4010E94D3119B01AC01C701B60179
S1130AB00E94CE1118160CF043C020E030E040EA4A
S1130AC051E4C501B4010E94D3119B01AC01C701DB
S1130AD0B6010E94CE1118160CF055C0C3FD53C0C8
S1130AE088E090E0A0E0B0E080930D0390930E03C3
S1130AF0A0930F03B09310036BEB71E081EC96E0CD
S1130B000E945D164AE050E060910C0381EC96E08F
S1130B100E94DE1680910C03843068F180914B05AD
S1130B2090914C05886090934C0580934B051092EE
S1130B300C036DEA71E081EC96E00E945D161BC027
S1130B40C77FD0934C05C0934B0580910D039091C2
S1130B500E03A0910F03B09110030897A105B105EE
S1130B6051F410920C0310920D0310920E03109284
S1130B700F03109210038091590590915A058937FB
S1130B80910508F462C080915B05813009F05DC075
S1130B9080916305813009F058C020E030E048ECD2
S1130BA052E4609131057091320580913305909142
S1130BB034050E94741020E030E040EA51E40E94C1
S1130BC0D3119B01AC01609135057091360580917C
S1130BD03705909138050E946F1087FF36C08091C9
S1130BE04B0590914C0591FD50C080E092E0A0E04F
S1130BF0B0E080930D0390930E03A0930F03B09382
S1130C00100368E971E081EC96E00E945D164AE009
S1130C1050E060910C0381EC96E00E94DE16809116
S1130C200C03843090F180914B0590914C059260B7
S1130C3090934C0580934B0510920C0367E771E089
S1130C4081EC96E00E945D1620C080914B05909146
S1130C504C059D7F90934C0580934B0580910D032B
S1130C6090910E03A0910F03B0911003811592404F
S1130C70A105B10551F410920C0310920D031092CA
S1130C800E0310920F0310921003209156058091C9
S1130C904B0590914C05222331F0816090934C05D3
S1130CA080934B0505C08E7F90934C0580934B0534
S1130CB02091570580914B0590914C05222331F0EA
S1130CC0826090934C0580934B0505C08D7F909373
S1130CD04C0580934B052091580580914B059091CC
S1130CE04C05222331F0846090934C0580934B058E
S1130CF005C08B7F90934C0580934B0580914B05E9
S1130D0090914C059C01237033272330310511F455
S1130D1082FD32C084FD49C080E190E0A0E0B0E0F3
S1130D2080930D0390930E03A0930F03B0931003CD
S1130D3066E671E081EC96E00E945D164AE050E0C0
S1130D4060910C0381EC96E00E94DE1680910C0306
S1130D50843058F180914B0590914C0580619093BB
S1130D604C0580934B0510920C0365E571E081EC12
S1130D7096E00E945D1619C08F7E90934C05809377
S1130D804B0580910D0390910E03A0910F03B09138
S1130D9010034097A105B10541F410920D03109280
S1130DA00E0310920F031092100380915B058130A3
S1130DB009F075C020E030E048EC52E46091310560
S1130DC07091320580913305909134050E9474101E
S1130DD020E030E040E751E40E94D3119B01AC01D4
S1130DE060913505709136058091370590913805ED
S1130DF00E946F1087FF1DC080914B0586FF19C0AC
S1130E0069E471E081EC96E00E945D1680914B05E7
S1130E1090914C058F7B90934C0580934B051092D9
S1130E200D0310920E0310920F03109210031092F0
S1130E300C0320E030E048EC52E4609131057091FD
S1130E40320580913305909134050E94741020E09E
S1130E5030E040E951E40E94D3119B01AC01609160
S1130E6035057091360580913705909138050E94BB
S1130E70CE11181644F580914B0586FD24C06EE30F
S1130E8071E081EC96E00E945D1680914B05909193
S1130E904C05806490934C0580934B0514C089E005
S1130EA00E94FC1920914B0530914C05892B31F09F
S1130EB02F7B30934C0520934B0505C02064309361
S1130EC04C0520934B0581E00E942D0D80914B052C
S1130ED090914C05A0E0B0E04091080350910903C3
S1130EE060910A0370910B0384179507A607B7074F
S1130EF0C9F064E271E081EC96E00E945D16809195
S1130F004B0590914C05A0E0B0E0809308039093CA
S1130F100903A0930A03B0930B03809150058460E6
S1130F2080935005DF91CF91FF90EF90DF90CF90A9
S1130F30BF90AF909F908F90089560914B057091F2
S1130F404C0542E050E081EC96E00E94F6164AE03F
S1130F5050E060E870E081EC96E00E9457174AE0A8
S1130F6050E060E170E081EC96E00E9457178091B8
S1130F704B0587FD06C060E271E081EC96E00E94BB
S1130F805D1680914B0584FD06C06CE171E081EC37
S1130F9096E00E945D1620914B0530914C05207916
S1130FA0332781E0232B09F080E008951F920F92EC
S1130FB00FB60F9211242F933F934F935F936F9328
S1130FC07F938F939F93AF93BF93EF93FF938091FE
S1130FD0130390911403893E934008F47CC010924B
S1130FE014031092130381E090E090938C06809395
S1130FF08B0680918D0690918E06019690938E06B5
S113100080938D068091710590917205019690935D
S11310107205809371058091510590915205009756
S113102029F0019790935205809351058091110303
S1131030909112030A9750F0109212031092110328
S113104081E090E090934E0580934D0580911103CB
S1131050909112030196909312038093110380914F
S11310607B058F5F80937B0580917A058F5F8093EA
S11310707A05809179058F5F809379058091780551
S11310808F5F80937805809177058F5F80937705D4
S1131090809176058F5F80937605809159059091B4
S11310A05A05019690935A058093590580917305CA
S11310B090917405019690937405809373058091C3
S11310C07505813039F48091730590917405803FE2
S11310D0910508F4A8950E940B0E8091130390913A
S11310E014030196909314038093130380910E01CB
S11310F08093B300FF91EF91BF91AF919F918F9136
S11311007F916F915F914F913F912F910F900FBEFF
S11311100F901F901895F894A0EBB0E01C92E1EBAF
S1131120F0E010821092B20080910E018093B3001F
S11311308C9182608C93808187608083E0E7F0E00B
S1131140808182608083789408950F931F93CF9356
S1131150DF9301E315E0C1E0D0E0CE010E94A926AF
S1131160F80181938F012196C530D105B1F782E052
S113117090E00E94A92680935B05DF91CF911F9197
S11311800F9108950E948B0826E040E855E260E044
S113119070E081EC96E00E94EE1468EE73E080E06B
S11311A090E00E94D1186DE472E081EC96E00E9418
S11311B05D1668E472E081EC96E00E942C1668E803
S11311C071E08BE395E00E94A2266BE375E081EC6D
S11311D096E00E946F160E94160B61E089E00E945F
S11311E0911961E088E00E94911961E081E10E9417
S11311F0911961E082E10E94911961E083E10E940A
S1131200911961E083E00E94911961E083E00E94FA
S1131210911961E087E00E94911961E08AE00E94DF
S1131220911960E084E00E9491190E94A50820E0D1
S113123030E040E751E464E170E085ED94E00E9421
S1131240251A68E372E081EC96E00E945D1661E085
S113125089E00E94CD1961E088E00E94CD19EBE39A
S1131260F5E0118A108A8EE0808F8FE0818F80E113
S1131270828F0895AF92BF92CF92DF92EF92FF9246
S11312800F931F93CF93DF931F92CDB7DEB7809157
S1131290510590915205892B09F0BAC1209150054E
S11312A0822F837029F42091500522FF37C1D3C0C7
S11312B084E1E7E7F6E0DF011D928A95E9F7EBE3C5
S11312C0F5E080E090E03191DC01A958B94F3C93FE
S11312D0019686309105B9F782E080937D062093CC
S11312E07E0652E0F52E6BEFE62E79E1A72EB12CA7
S11312F0E98285E193E00E94521F882349F0AE0100
S11313004F5F5F4F6CE775E085E193E00E94BD1D80
S113131064E073E081EC96E00E945D1648E067E7C4
S113132076E085E193E00E94831F60ED77E085E13C
S113133093E00E94C81B6CEE72E081EC96E00E9480
S11313405D1668EB7BE085E193E00E94911B8823A6
S113135009F478C0AE014F5F5F4F6CE775E085E13B
S113136093E00E94BD1D882309F442C063EE72E03D
S113137081EC96E00E942C1660917C0581EC96E04D
S11313800E94521660917D0581EC96E00E945216EF
S113139060917E0581EC96E00E94521660917F0573
S11313A081EC96E00E9452166091800581EC96E0F3
S11313B00E9452166091810581EC96E00E945216BB
S11313C0609182054AE050E081EC96E00E94D716D5
S11313D0609183054AE050E081EC96E00E94DE16BD
S11313E0609184054AE050E081EC96E00E94DE16AC
S11313F04BE3C42E45E0D42E00E010E0F801E4589D
S1131400FA4F9081F60181916F01981731F06FE8DE
S113141071E081EC96E00E946F160F5F1F4F06305B
S1131420110561F780918205813061F48091500546
S11314308C7F80935005109252051092510581E0E3
S113144090E0E8C0B0925205A0925105FA94FF20B2
S113145009F429CF4DCF84E1E7E7F6E0DF011D92DF
S11314608A95E9F7EBE3F5E080E090E03191DC0167
S1131470A958B94F3C93019686309105B9F783E09A
S113148080937D0620937E0680914B0590914C05B8
S113149090937F068093800682E08093810692E099
S11314A0F92E2BEFE22E39E1A32EB12CE98285E14E
S11314B093E00E94521F882349F0AE014F5F5F4FB3
S11314C06CE775E085E193E00E94BD1D60ED72E07C
S11314D081EC96E00E945D164BE067E776E085E1DB
S11314E093E00E94831F60ED77E085E193E00E9422
S11314F0C81B68EB72E081EC96E00E945D1668EB15
S11315007BE085E193E00E94911B811108C0B092B9
S11315105205A0925105FA94F110C8CF7BC0AE01D8
S11315204F5F5F4F6CE775E085E193E00E94BD1D5E
S1131530882309F442C06FEA72E081EC96E00E94CD
S11315402C1660917C0581EC96E00E945216609105
S11315507D0581EC96E00E94521660917E0581EC37
S113156096E00E94521660917F0581EC96E00E94FD
S113157052166091800581EC96E00E9452166091AB
S1131580810581EC96E00E945216609182054AE042
S113159050E081EC96E00E94D716609183054AE002
S11315A050E081EC96E00E94DE16609184054AE0EA
S11315B050E081EC96E00E94DE168BE3C82E85E0B5
S11315C0D82E00E010E0F801E458FA4F9081F601BB
S11315D081916F01981731F06FE871E081EC96E02A
S11315E00E946F160F5F1F4F0630110561F780913F
S11315F08205813009F08BCF809150058B7F8093D9
S11316005005109252051092510581E090E002C0FD
S113161080E090E00F90DF91CF911F910F91FF90A8
S1131620EF90DF90CF90BF90AF90089585E193E065
S11316300E944820811106C062EA72E081EC96E0C3
S11316400E945D1640E054E468E574E485E193E0AB
S11316500E94FC1D811106C06CE872E081EC96E0EA
S11316600E945D1660E085E193E00E940C208111E8
S113167006C06EE772E081EC96E00E945D166AE6B1
S113168072E081EC96E00E945D164AE050E064E16D
S113169070E081EC96E00E94571740E064E185E138
S11316A093E00E94D31F63E572E081EC96E00E9410
S11316B05D164AE050E06BE070E081EC96E00E9439
S11316C057176BE085E193E00E944D21089527E6CA
S11316D037E042E06AE085E193E00C94761DFF92E6
S11316E00F931F93CF93DF931F92CDB7DEB785E19E
S11316F093E00E94521F882309F44CC00BEFECE7DF
S1131700F5E0DF01802F1D928A95E9F761E973E026
S113171081EC96E00E942C160983AE014F5F5F4F67
S11317206CE775E085E193E00E94BD1D8823C9F054
S1131730EBE3F5E080E090E0DC01A458BA4F3C9183
S113174021910196321749F067EA71E081EC96E045
S11317500E946F1680E090E02AC1F82E8630910531
S113176059F7A6E0FA120BC080918705823071F018
S113177080918805833551F080E090E018C169ECD0
S113178071E081EC96E00E946F1604C0809182059E
S1131790813009F00CC180918305823079F1843065
S11317A009F45EC0813009F078C06BE773E081EC26
S11317B096E00E945D1681EC96E00E94CC14809124
S11317C04F05816080934F0580918905813079F4BC
S11317D010925B0582E090E00E94A926882309F418
S11317E065C060E082E090E00E94B1265FC00E9484
S11317F07F02892B09F05AC012E059C061E673E0F8
S113180081EC96E00E945D1681EC96E00E94CC1477
S113181080914F058B7F826080934F050E949D07C6
S11318208823D1F066E573E081EC96E00E945D16B2
S113183081EC96E00E94CC1489E00E94FC19892B6B
S1131840B1F180914B0590914C05877D9D7F9093DC
S11318504C0580934B052BC088E08093830527C0FB
S11318606BE373E081EC96E00E945D1681EC96E0F8
S11318700E94CC1480914F058D7F846080934F0526
S1131880809187050E94150D882389F06FE273E02B
S113189081EC96E00E945D160AC06DEB71E081EC6C
S11318A096E00E946F1680E090E081C011E0809184
S11318B08405809343058091860590E090934705C5
S11318C0809346058091850584E1E7E7F6E0DF0132
S11318D01D928A95E9F7EBE3F5E080E090E0219131
S11318E0DC01A958B94F2C93019686309105B9F7BC
S11318F081E080937D068091830580937E068091AC
S1131900480580937F068091440590914505909306
S113191080068093810680914B0590914C059093AD
S1131920820680938306109384066091310570913A
S1131930320580913305909134050E94E610330FEF
S1131940220B322F20938506330F220B322F209344
S11319508606709387066093880663E273E081ECE1
S113196096E00E945D1642E167E776E085E193E048
S11319700E94831F60ED77E085E193E00E94C81B1D
S113198067E173E081EC96E00E945D1680914F055B
S113199081FF0BC080918305883039F080918705E1
S11319A00E94DE0C81E090E002C081E090E00F90A4
S11319B0DF91CF911F910F91FF90089510927205BE
S11319C01092710580914F0581FF2DC089E00E941E
S11319D0FC19892B41F110925A051092590560E0C7
S11319E089E00E94CD1960E088E00E94CD1968E585
S11319F07BE180E090E00E94D11861E088E00E94E1
S1131A00CD1980914F058D7F80934F0581E08093A0
S1131A10630580914B0590914C05877D9D7F909344
S1131A204C0580934B0581E00895CF93DF9310928A
S1131A30720510927105CBE3D5E08C898B7F8C8B7A
S1131A4061E089E00E94CD1961E088E00E94CD192F
S1131A5018A681E0DF91CF91089580914B05909174
S1131A604C05887B9270892B39F165EA73E081EC2F
S1131A7096E00E945D1660914B0570914C0542E022
S1131A8050E081EC96E00E94F6161092630589E01E
S1131A900E94FC19892B81F461E089E00E94CD1930
S1131AA061E088E00E94CD1968E873E180E090E08D
S1131AB00E94D11881E008950895CF92EF920F9378
S1131AC00FB6F894A89580916000886180936000B7
S1131AD0109260000FBE99E288E10FB6F894A895C1
S1131AE0809360000FBE90936000109275050E9471
S1131AF0C20840910A0150910B0160910C01709150
S1131B000D01C12CEE24E3940AE028E28FE896E06C
S1131B100E94890F8FE896E00E94FD0F0E94AC1886
S1131B20DC01CB0188519C4FAF4FBF4F80936C05B4
S1131B3090936D05A0936E05B0936F0581E00E94AC
S1131B40481981E080937505EBE3F5E0808991897C
S1131B50877C9D7F918B808B0F91EF90CF90089520
S1131B60CF93DF93CBE3D5E069A57AA54AE050E0B3
S1131B7081EC96E00E94F01665EE71E081EC96E04F
S1131B800E9450166BA57CA54AE050E081EC96E0DB
S1131B900E94F01665EE71E081EC96E00E9450160A
S1131BA06DA57EA54AE050E081EC96E00E94F61611
S1131BB0DF91CF91089580918B0690918C06892BAB
S1131BC099F010928C0610928B0610927405109264
S1131BD073050E946F0B0E94E2030E94840381E05C
S1131BE00E943A090C94B00D08959C0121503109CA
S1131BF02633314050F08A3B910550F0813421E086
S1131C00920740F084E690E0089588EC90E008950F
S1131C108AEF90E0089580917005882311F080E0A8
S1131C20089520916405309165053093D404209380
S1131C30D30480916605909167052817390720F42D
S1131C409093D4048093D30480916805909169059E
S1131C502091D3043091D4042817390720F49093A9
S1131C60D4048093D3048091D204813009F46FC0EA
S1131C7020F0823009F4D5C039C18EE00E944B199E
S1131C8090936B0580936A0581E08093D2048091E0
S1131C90D104893180F420916A0530916B05E82FD5
S1131CA0F0E0EE0FFF1FE156FB4F318320838F5F7F
S1131CB08093D1041BC1AFE9B4E08FEC94E0FD0143
S1131CC022813381219331938E179F07C9F7809125
S1131CD06A0590916B059093D0048093CF0421ED15
S1131CE034E080E090E04D915D91840F951F2A17B8
S1131CF03B07C9F769E170E00E945324CB010E94BD
S1131D00F50D909365058093640521E020939E046E
S1131D108E36910550F410927B05809178058E30B3
S1131D2008F4E7C010925605E1C08937910550F0D8
S1131D3080917B058E3008F4DCC0109278052093E6
S1131D405605D4C01092780510927B05CFC08FE061
S1131D500E944B1990936B0580936A0582E08093EF
S1131D60D20480919D04893180F420916A053091D8
S1131D706B05E82FF0E0EE0FFF1FE559FB4F3183B1
S1131D8020838F5F80939D04B1C0ABE6B4E08BE900
S1131D9094E0FD0122813381219331938E179F07B3
S1131DA0C9F780916A0590916B0590939C04809388
S1131DB09B042DE934E080E090E04D915D91840F27
S1131DC0951F2A173B07C9F769E170E00E94532465
S1131DD0CB010E94F50D909367058093660521E081
S1131DE020939E048E36910550F410927A058091CA
S1131DF077058E3008F47DC01092570577C0893777
S1131E00910550F080917A058E3008F472C01092DA
S1131E107705209357056AC010927A0510927705CA
S1131E2065C080E10E944B1990936B0580936A050D
S1131E301092D20480916A04893180F420916A0559
S1131E4030916B05E82FF0E0EE0FFF1FE85CFB4FCD
S1131E50318320838F5F80936A0448C0A8E3B4E091
S1131E60FD01828193818193919384E0E836F807A0
S1131E70C1F780916A0590916B05909369048093F2
S1131E8068042AE634E080E090E04D915D91840F8F
S1131E90951F2A173B07C9F769E170E00E94532494
S1131EA0CB010E94F50D909369058093680521E0AC
S1131EB020939E048E36910548F410927905809102
S1131EC076058E30B0F01092580510C08937910510
S1131ED048F0809179058E3060F010927605209359
S1131EE0580504C0109276051092790580919E04DD
S1131EF0811110929E04089583E393E3A3E3BFE367
S1131F0080939D0690939E06A0939F06B093A0068F
S1131F1008954F925F926F927F928F929F92AF92A9
S1131F20BF92CF92DF92EF920F93CF93DF93EC01A6
S1131F304A015B01CB86C22ED12CDD86CC86EA8693
S1131F40602F70E080E090E00E941C119B01AC01C6
S1131F5060E070E080E090E40E94401220E030E015
S1131F6040E05FE30E94D3110E94E6107F836E83FA
S1131F70602F70E0660F771F072E000C880B990BFB
S1131F800E941E119B01AC0160E070E080E090E4CF
S1131F900E9440122B013C01A5019401C501B4012A
S1131FA00E94D3114B015C01B601DD0C880B990B27
S1131FB00E941E11A30192010E94D3119B01AC0146
S1131FC0C501B4010E9474106A8F7B8F8C8F9D8F22
S1131FD01AA61BA61CA61DA61D8A1C8ADF91CF91DA
S1131FE00F91EF90DF90CF90BF90AF909F908F9024
S1131FF07F906F905F904F90089521E0FC012087BF
S1132000118608955058BB27AA270E941A100C94D1
S113201094110E94861138F00E948D1120F039F439
S11320209F3F19F426F40C9483110EF4E095E7FB1A
S11320300C947D11E92F0E94A51158F3BA17620779
S113204073078407950720F079F4A6F50C94C7115B
S11320500EF4E0950B2EBA2FA02D0B01B9019001BF
S11320600C01CA01A0011124FF27591B99F0593F03
S113207050F4503E68F11A16F040A22F232F342F4B
S11320804427585FF3CF469537952795A795F04099
S11320905395C9F77EF41F16BA0B620B730B840BAE
S11320A0BAF09150A1F0FF0FBB1F661F771F881F66
S11320B0C2F70EC0BA0F621F731F841F48F48795BE
S11320C077956795B795F7959E3F08F0B0CF9395B0
S11320D0880F08F09927EE0F9795879508950E9429
S11320E0591108F481E008950E9488100C94941109
S11320F00E948D1158F00E94861140F029F45F3F30
S113210029F00C947D1151110C94C8110C94831175
S11321100E94A51168F39923B1F3552391F3951BFC
S1132120550BBB27AA2762177307840738F09F5FF4
S11321305F4F220F331F441FAA1FA9F335D00E2E61
S11321403AF0E0E832D091505040E695001CCAF7CE
S11321502BD0FE2F29D0660F771F881FBB1F261791
S113216037074807AB07B0E809F0BB0B802DBF0168
S1132170FF2793585F4F3AF09E3F510578F00C9437
S11321807D110C94C8115F3FE4F3983ED4F3869517
S113219077956795B795F7959F5FC9F7880F911D58
S11321A09695879597F90895E1E0660F771F881F44
S11321B0BB1F621773078407BA0720F0621B730BF7
S11321C0840BBA0BEE1F88F7E09508950E94ED107A
S11321D06894B1110C94C81108950E94AD1188F04F
S11321E09F5798F0B92F9927B751B0F0E1F0660FD7
S11321F0771F881F991F1AF0BA95C9F714C0B13018
S113220091F00E94C711B1E008950C94C711672F93
S1132210782F8827B85F39F0B93FCCF38695779546
S11322206795B395D9F73EF490958095709561952F
S11322307F4F8F4F9F4F0895E89409C097FB3EF45A
S113224090958095709561957F4F8F4F9F4F9923FF
S1132250A9F0F92F96E9BB279395F695879577957D
S11322606795B795F111F8CFFAF4BB0F11F460FF3D
S11322701BC06F5F7F4F8F4F9F4F16C0882311F095
S113228096E911C0772321F09EE8872F762F05C0A9
S1132290662371F096E8862F70E060E02AF09A9544
S11322A0660F771F881FDAF7880F9695879597F939
S11322B00895990F0008550FAA0BE0E8FEEF1616D3
S11322C01706E807F907C0F012161306E407F50726
S11322D098F0621B730B840B950B39F40A2661F09A
S11322E0232B242B252B21F408950A2609F4A1403D
S11322F0A6958FEF811D811D089597F99F6780E84A
S113230070E060E008959FEF80EC089500240A9443
S11323101616170618060906089500240A941216BC
S11323201306140605060895092E0394000C11F4EF
S1132330882352F0BB0F40F4BF2B11F460FF04C09C
S11323406F5F7F4F8F4F9F4F089557FD9058440FF5
S1132350551F59F05F3F71F04795880F97FB991F00
S113236061F09F3F79F087950895121613061406BD
S1132370551FF2CF4695F1DF08C01616170618064A
S1132380991FF1CF86957105610508940895E89425
S1132390BB2766277727CB0197F908950E94591127
S11323A008F48FEF08950E94E6110C9494110E9492
S11323B0861138F00E948D1120F0952311F00C94B1
S11323C07D110C94831111240C94C8110E94A51141
S11323D070F3959FC1F3950F50E0551F629FF00174
S11323E0729FBB27F00DB11D639FAA27F00DB11D8D
S11323F0AA1F649F6627B00DA11D661F829F222716
S1132400B00DA11D621F739FB00DA11D621F839F9C
S1132410A00D611D221F749F3327A00D611D231F72
S1132420849F600D211D822F762F6A2F11249F57C0
S113243050409AF0F1F088234AF0EE0FFF1FBB1FC3
S1132440661F771F881F91505040A9F79E3F510582
S113245080F00C947D110C94C8115F3FE4F3983E16
S1132460D4F3869577956795B795F795E7959F5F2C
S1132470C1F7FE2B880F911D9695879597F90895BE
S1132480FA01EE0FFF1F309621053105A1F1611508
S1132490710561F48038BFE39B0749F16894903873
S11324A0810561F08038BFEF9B0741F099234AF51D
S11324B0FF3FE1053105210519F1E8940894E795FA
S11324C0D901AA2329F4AB2FBE2FF85FD0F310C093
S11324D0FF5F70F4A695E0F7F73950F019F0FF3A72
S11324E038F49F779F930DD00F9007FC9058089570
S11324F046F00C94831160E070E080E89FE3089557
S11325004FE79F775F934F933F932F930E949613C8
S11325102F913F914F915F910E94D3110C94DE1241
S113252019F416F40C9483110C9410130E94AD1139
S1132530B8F39923C9F3B6F39F57550B87FF0E944D
S11325401E130024A0E640EA900180585695979502
S113255028F4805C660F771F881F20F02617370742
S1132560480730F4621B730B840B202931294A2B52
S1132570A69517940794202531254A2758F7660F06
S1132580771F881F20F026173707480730F4620B9F
S1132590730B840B200D311D411DA09581F7B901EA
S11325A0842F9158880F96958795089529F416F0ED
S11325B00C947D110C94C7110C9483110E94AD11DD
S11325C0A8F39638A0F707F80F92E8942BE33AEAB9
S11325D048EB5FE70E94E9110F920F920F924DB7FB
S11325E05EB70F920E94DE13E8E6F0E00E94251326
S11325F04F915F91EF91FF91E595EE1FFF1F49F019
S1132600FE57E0684427EE0F441FFA95E1F7419521
S1132610550B0E9458130F9007FE0C944C13089509
S11326209F3F31F0915020F4879577956795B79542
S1132630880F911D9695879597F90895915050406C
S1132640660F771F881FD2F70895DF93CF931F93E8
S11326500F93FF92EF92DF927B018C01689406C086
S1132660DA2EEF010E94E611FE01E894A59125916E
S1132670359145915591A6F3EF010E941A10FE0180
S11326809701A801DA9469F7DF90EF90FF900F911A
S11326901F91CF91DF9108959B01AC0160E070E040
S11326A080E89FE30C9474100C947D110C94101327
S11326B00E94AD11D8F39923C9F3940F511DA3F3CC
S11326C09150504094F059F0882332F0660F771FF0
S11326D0881F91505040C1F79E3F51052CF7880F39
S11326E0911D9695879597F908955F3FACF0983EB4
S11326F09CF0BB27869577956795B79508F4B160EC
S11327009395C1F7BB0F58F711F460FFE8CF6F5FE3
S11327107F4F8F4F9F4FE3CF0C94C81116F00C944A
S113272010130C94831168940C947D110E94AD11C4
S1132730A8F39923C1F3AEF3DF93CF931F930F93C1
S1132740FF92C92FDD2788232AF02197660F771F70
S1132750881FDAF720E030E040E85FEB9FE3883938
S113276020F0803E38F021968F770E940310E0E934
S1132770F0E004C00E940310EDEBF0E00E9425138A
S11327808B01BE01EC01FB2E6F5771097595771F04
S1132790880B990B0E941E1128E132E741E35FE3A5
S11327A00E94E611AF2D9801AE01FF900F911F9189
S11327B0CF91DF910E941A100C949411FA01DC015C
S11327C0AA0FBB1F9B01AC01BF5728F42227332754
S11327D04427507820C0B75190F4AB2F002446957D
S11327E037952795011CA395D2F3002071F0220F91
S11327F0331F441FB395DAF30ED00C9402106130EA
S11328007105A0E88A07B94630F49B01AC0166273C
S1132810772788279078309621F02083318342836C
S113282053830895FC01918D228D892F90E0805C63
S11328309F4F821B91098F7399270895FC01918DF5
S1132840828D981731F0828DE80FF11D858D90E00F
S113285008958FEF9FEF0895FC01918D828D981755
S113286061F0828DDF01A80FB11D5D968C91928D70
S11328709F5F9F73928F90E008958FEF9FEF08956D
S1132880FC01538D448D252F30E0842F90E0821B72
S1132890930B541710F0CF9608950197089586EA84
S11328A095E1892B49F080E090E0892B29F00E9482
S11328B0A61581110C9400000895FC01848DDF019C
S11328C0A80FB11DA35ABF4F2C91848D90E001969F
S11328D08F739927848FA689B7892C93A089B1898E
S11328E08C91837080648C93938D848D981306C02F
S11328F00288F389E02D80818F7D80830895EF9293
S1132900FF920F931F93CF93DF93EC0181E0888FA5
S11329109B8D8C8D981305C0E889F989808185FD8C
S113292026C0F62E0B8D10E00F5F1F4F0F7311277B
S1132930E02E8C8DE8120CC00FB607FCFACFE889A4
S1132940F989808185FFF5CFCE010E945D14F1CF16
S11329508B8DFE01E80FF11DE35AFF4FF0829FB704
S1132960F8940B8FEA89FB89808180620AC09FB743
S1132970F894EE89FF896083E889F98980818370FE
S1132980806480839FBF81E090E0DF91CF911F91AD
S11329900F91FF90EF900895CF93DF93EC01888D12
S11329A08823C9F0EA89FB89808185FD05C0A8894F
S11329B0B9898C9186FD0FC00FB607FCF5CF8081D5
S11329C085FFF2CFA889B9898C9185FFEDCFCE011F
S11329D00E945D14E7CFDF91CF910895CF92DF92EB
S11329E0EF92FF921F93CF93DF93EC016A017B0177
S11329F0122F60E874E88EE190E0A70196010E942E
S1132A006724DA01C9010197A109B109B695A7950F
S1132A10979587959C01E889F98982E0808321153F
S1132A2080E13807A8F0E889F989108260E472E44B
S1132A308FE090E0A70196010E946724DA01C901A2
S1132A400197A109B109B695A795979587959C011A
S1132A50EC85FD853083EE85FF852083188EEC8917
S1132A60FD891083EA89FB89808180618083EA89FA
S1132A70FB89808188608083EA89FB898081806802
S1132A808083EA89FB8980818F7D8083DF91CF9168
S1132A901F91FF90EF90DF90CF9008951F920F92B7
S1132AA00FB60F9211242F938F939F93EF93FF935D
S1132AB0E091D106F091D2068081E091D706F091A1
S1132AC0D80682FD12C090818091DA068F5F8F73E1
S1132AD02091DB06821751F0E091DA06F0E0EF5323
S1132AE0F94F958F8093DA0601C08081FF91EF91B1
S1132AF09F918F912F910F900FBE0F901F9018955B
S1132B001F920F920FB60F9211242F933F934F935E
S1132B105F936F937F938F939F93AF93BF93EF9341
S1132B20FF9381EC96E00E945D14FF91EF91BF91B9
S1132B30AF919F918F917F916F915F914F913F9151
S1132B402F910F900FBE0F901F90189581EC96E077
S1132B500E94121421E0892B09F420E0822F0895A9
S1132B60E1ECF6E01382128288EE93E0A0E0B0E09C
S1132B7084839583A683B7838BEE91E091838083CE
S1132B8085EC90E09587848784EC90E0978786872E
S1132B9080EC90E0918B808B81EC90E0938B828B26
S1132BA082EC90E0958B848B86EC90E0978B868BFF
S1132BB0118E128E138E148E089508950E940D198D
S1132BC00E94DD150E945D0DCFE4D4E10E94DB0D6F
S1132BD02097E1F30E944F14F9CFCF92DF92EF9246
S1132BE0FF920F931F93CF93DF936C017A018B01B4
S1132BF0C0E0D0E0CE15DF0581F0D8016D918D01E4
S1132C00D601ED91FC910190F081E02DC60109956A
S1132C10892B11F02196EECF7E01C701DF91CF9170
S1132C201F910F91FF90EF90DF90CF900895611561
S1132C30710579F0FB0101900020E9F73197AF01AC
S1132C40461B570BDC01ED91FC910280F381E02DD2
S1132C50099480E090E00895EF92FF920F931F9300
S1132C60CF93DF938C017B01C0E0D0E0F701EC0F40
S1132C70FD1F6491662361F0D801ED91FC910190F0
S1132C80F081E02DC8010995892B11F02196EECF32
S1132C90CE01DF91CF911F910F91FF90EF90089596
S1132CA00C941716DC01ED91FC910190F081E02D5C
S1132CB0099469EF71E00C9417160F931F93CF9347
S1132CC0DF93EC010E942C168C01CE010E94591650
S1132CD0800F911FDF91CF911F910F9108950F9352
S1132CE01F93CF93DF93EC010E9417168C01CE0142
S1132CF00E945916800F911FDF91CF911F910F9160
S1132D0008958F929F92AF92BF92EF92FF920F938A
S1132D101F93CF93DF93CDB7DEB7A1970FB6F89487
S1132D20DEBF0FBECDBF7C01FA01CB0119A2223058
S1132D3008F42AE08E010F5D1F4F822E912CA12CE6
S1132D40B12CBF01A50194010E946724F901CA01B5
S1132D50015011096A3010F4605D01C0695CD8014A
S1132D606C93232B242B252B61F7B801C7010E94F8
S1132D701716A1960FB6F894DEBF0FBECDBFDF9134
S1132D80CF911F910F91FF90EF90BF90AF909F90C4
S1132D908F9008952115310541F4DC01ED91FC91EA
S1132DA00190F081E02D642F09940C9481169A010E
S1132DB0462F50E060E070E00C94CA160F931F9306
S1132DC0CF93DF93EC010E94D7168C01CE010E94B1
S1132DD05916800F911FDF91CF911F910F91089584
S1132DE09A01AB0160E070E00C94CA160F931F9334
S1132DF0CF93DF93EC010E94F0168C01CE010E9468
S1132E005916800F911FDF91CF911F910F91089553
S1132E10CF92DF92EF92FF920F931F93CF93DF93A2
S1132E202115310581F4DC01ED91FC910190F081D3
S1132E30E02D642FDF91CF911F910F91FF90EF90C0
S1132E40DF90CF9009942A30310501F577FF1DC03A
S1132E506A017B01EC016DE20E9452168C01442749
S1132E605527BA014C195D096E097F092AE0CE0184
S1132E700E948116800F911FDF91CF911F910F91B6
S1132E80FF90EF90DF90CF9008952AE0DF91CF91EB
S1132E901F910F91FF90EF90DF90CF900C948116CB
S1132EA09A01AB01770F660B770B0C9408170F93FD
S1132EB01F93CF93DF93EC010E9450178C01CE0136
S1132EC00E945916800F911FDF91CF911F910F918E
S1132ED008957F928F929F92AF92BF92CF92DF928A
S1132EE0EF92FF920F931F93CF93DF938C016A01AC
S1132EF07B01722E9A01AB01C701B6010E943A24EC
S1132F00882319F06CEF71E027C046015701E8945B
S1132F10B7F82FEF3FEF4FE75FE7C501B4010E9419
S1132F203A2481110DC02FEF3FEF4FE75FE7C50152
S1132F30B4010E946F1018161CF460E072E00CC01B
S1132F402FEF3FEF4FE75FE4C701B6010E94CE11B8
S1132F50181694F464E072E0C801DF91CF911F91D8
S1132F600F91FF90EF90DF90CF90BF90AF909F9024
S1132F708F907F900C9417162FEF3FEF4FE75FEC85
S1132F80C701B6010E946F1087FDE4CF20E030E056
S1132F90A901C701B6010E946F1087FF0AC06DE244
S1132FA0C8010E945216EC01F7FAF094F7F8F09475
S1132FB002C0C0E0D0E0B12C60E070E080E09FE3AC
S1132FC07B1441F020E030E040E251E40E947410B0
S1132FD0B394F6CFA70196010E9403106B017C0104
S1132FE00E94ED104B015C012AE0AB01BC01C80159
S1132FF00E948116C80FD91F7720B9F1C501B40109
S11330000E941C119B01AC01C701B6010E94021071
S11330106B017C016EE2C8010E945216C80FD91FD1
S113302020E030E040E251E4C701B6010E94D31130
S11330304B015C010E94ED106B017C014AE050E001
S1133040C8010E94F016C80FD91FB60180E090E0B5
S11330500E941C119B01AC01C501B4010E94021025
S11330606B017C017A947110DBCFCE01DF91CF919B
S11330701F910F91FF90EF90DF90CF90BF90AF9092
S11330809F908F907F9008950F931F93CF93DF931A
S1133090EC010E9469178C01CE010E945916800F21
S11330A0911FDF91CF911F910F9108951F920F925D
S11330B00FB60F9211242F933F938F939F93AF9347
S11330C0BF9380915F0790916007A0916107B091D1
S11330D0620730915E0726E0230F2D3720F4029615
S11330E0A11DB11D05C029E8230F0396A11DB11D23
S11330F020935E0780935F0790936007A093610716
S1133100B09362078091630790916407A09165076B
S1133110B09166070196A11DB11D8093630790933A
S11331206407A0936507B0936607BF91AF919F9121
S11331308F913F912F910F900FBE0F901F90189574
S11331402FB7F89460915F077091600780916107D1
S1133150909162072FBF08953FB7F8948091630759
S113316090916407A0916507B091660726B5A89B66
S113317005C02F3F19F00196A11DB11D3FBFBA2F05
S1133180A92F982F8827820F911DA11DB11DBC0165
S1133190CD0143E0660F771F881F991F4A95D1F729
S11331A008958F929F92AF92BF92CF92DF92EF9247
S11331B0FF926B017C010E94AC184B015C01C114AD
S11331C0D104E104F10401F10E94E3210E94AC184E
S11331D0DC01CB0188199909AA09BB09883E9340EF
S11331E0A105B10560F321E0C21AD108E108F10894
S11331F088EE880E83E0981EA11CB11CC114D10472
S1133200E104F10419F7DBCFFF90EF90DF90CF904A
S1133210BF90AF909F908F900895789484B582600A
S113322084BD84B5816084BD85B5826085BD85B566
S1133230816085BDEEE6F0E0808181608083E1E815
S1133240F0E010828081826080838081816080834D
S1133250E0E8F0E0808181608083E1EBF0E0808150
S113326084608083E0EBF0E0808181608083EAE722
S1133270F0E08081846080838081826080838081AB
S11332808E7F80838081806880831092C10008953E
S113329080930F0108958E3008F08E5020910F0115
S11332A090E4299F900111248770822B80937C00E5
S11332B080917A00806480937A0080917A0086FD00
S11332C0FCCF809178002091790090E0922B0895B2
S11332D0833081F028F4813099F08230A1F0089590
S11332E08730A9F08830B9F08430D1F4809180001F
S11332F08F7D03C0809180008F7780938000089534
S113330084B58F7702C084B58F7D84BD0895809184
S1133310B0008F7703C08091B0008F7D8093B000A0
S11333200895CF93DF9390E0FC01E353FC4F249185
S1133330FC01EF51FC4F8491882361F190E0880FE8
S1133340991FFC01E75FFB4FC591D491FC01E1504B
S1133350FC4FA591B491611109C09FB7F89488817D
S1133360209582238883EC912E230BC0623061F474
S11333709FB7F8948881322F309583238883EC910A
S11333802E2B2C939FBF06C08FB7F894E8812E2B69
S113339028838FBFDF91CF9108951F93CF93DF933D
S11333A0282F30E0F901E754FC4F8491F901E353ED
S11333B0FC4FD491F901EF51FC4FC491CC23C1F0DF
S11333C0162F81110E946819EC2FF0E0EE0FFF1FF9
S11333D0E150FC4FA591B4919FB7F894111104C02A
S11333E08C91D095D82302C0EC91DE2BDC939FBF47
S11333F0DF91CF911F910895CF93DF93282F30E071
S1133400F901E754FC4F8491F901E353FC4FD49143
S1133410F901EF51FC4FC491CC2391F081110E942A
S11334206819EC2FF0E0EE0FFF1FEB50FC4FA59155
S1133430B491EC91ED2381E090E021F480E002C0AE
S113344080E090E0DF91CF910895FC01778B668B4B
S1133450248F358F468F578F80E090E0A0E0B4E44E
S113346080AF91AFA2AFB3AF08958EE480937C0098
S113347062E070E080E090E00E94D11880917A00D0
S1133480806480937A0080917A0086FDFCCF8091DD
S113349078002091790030E0322F2227A901330FE0
S11334A0660B770B9A01AB01282B60E070E381E196
S11334B090E00E948924CA01B90108952F923F9295
S11334C04F925F926F927F928F929F92AF92BF9230
S11334D0CF92DF92EF92FF920F931F93CF93DF93DC
S11334E000D000D000D0CDB7DEB79E838D837A8321
S11334F069830E94351A6B017C0100E010E08D8124
S11335009E81845B9F4F1C01ED81FE81E85BFF4F30
S1133510FC83EB8389819A810817190709F452C047
S1133520ED81FE8186890E944B19ED81FE8197A36E
S113353086A3BC01990F880B990B0E941E114B01A5
S11335405C01ED81FE8140AC51AC62AC73ACA30173
S113355092010E94021020E030E040E85AE30E9409
S1133560D311A30192010E9403109B01AC01ED81D0
S1133570FE8160AF71AF82AF93AFC501B4010E9409
S11335800210ED81FE8160AB71AB82AB93AB9B010A
S1133590AC010E94D3119B01AC01EB81FC816083DF
S11335A0718382839383F10160817181828193812C
S11335B00E940310F10160837183828393830F5F00
S11335C01F4FA8CFB80180E090E00E941C119B011E
S11335D0AC01F10160817181828193810E94741038
S11335E00E9496124B015C01B601DD0C880B990B0D
S11335F00E941E1120E030E04AE754E40E94741057
S113360020E030E040E85AE30E94D311ED81FE81CE
S1133610248D358D468D578D0E94D311A5019401BB
S11336200E94D311ED81FE81608B718B828B938B11
S1133630F101108211821282138226960FB6F89439
S1133640DEBF0FBECDBFDF91CF911F910F91FF90D1
S1133650EF90DF90CF90BF90AF909F908F907F902E
S11336606F905F904F903F902F90089581E0089560
S1133670FC0164830895FC0163830895FC01618760
S11336800895FC0162870895FC0163870895FC0195
S1133690409594854923642B64870895FC018581B2
S11336A00895FC0186810895FC0187810895FC0139
S11336B080850895FC01858596850895FC018281A5
S11336C00895FC016283089580E00895FC018785D4
S11336D090890895FC01818992890895FC01838968
S11336E094890895CF93DF93EC01E881F9810680F2
S11336F0F781E02DCE010995811103C00E94E321D9
S1133700F4CFDF91CF910895CF93DF93EC018A81B9
S1133710833019F40E94E321FACF81E0DF91CF9145
S113372008958F929F92AF92BF92CF92DF92EF92C1
S1133730FF92CF93DF93EC016B010E94A0184B0121
S11337405C01E12CF12C0E94A018DC01CB0188194A
S11337509909AA09BB098C159D05AE05BF0560F43E
S1133760E881F9810680F781E02DCE010995811168
S113377004C00E94E321E7CF80E0DF91CF91FF9066
S1133780EF90DF90CF90BF90AF909F908F9008956F
S11337908F929F92AF92BF92CF92DF92EF92FF925D
S11337A0CF93DF93EC016B010E94A0184B015C01E5
S11337B0E12CF12C0E94A018DC01CB018819990995
S11337C0AA09BB098C159D05AE05BF0530F48A8195
S11337D0833029F40E94E321EDCF80E001C081E031
S11337E0DF91CF91FF90EF90DF90CF90BF90AF909B
S11337F09F908F900895CF92DF92EF92FF92CF9394
S1133800DF93FC0126893789232B91F1EC010E9477
S1133810A0186B017C01E881F981008CF18DE02D09
S1133820CE010995882321F10E94A018AB01BC01A7
S11338304C195D096E097F098E899F89A0E0B0E06B
S113384084179507A607B707A8F02AE030E040E000
S113385050E061E070E080E090E00E946F229B0104
S1133860AC01A4E6B0E00E94A8240E94D118D3CFF2
S113387081E001C080E0DF91CF91FF90EF90DF9075
S1133880CF900895FC018CE092E0918380831282B2
S11338908FEF83838187828713861486108A178625
S11338A0128A118A148A138A178A168A08956EBD99
S11338B000000DB407FEFDCF8EB508958CB5806869
S11338C08CBD08958CB58F778CBD0895FC0145811E
S11338D0368180917707882399F02FB7F8948091E7
S11338E07707813059F48DB3809375079DB3809128
S11338F07607809589238DBB2FBF02C0209375075F
S11339004CBD3DBD08950F931F93FC01828184300B
S113391059F0833071F0823089F08130A1F040E4B5
S113392052E46FE070E013C040E054E264EF70E0F2
S11339300EC040E052E16AE770E009C040E059E09F
S11339406DE370E004C040E854E86EE170E0848107
S1133950882361F0813031F0823031F0833031F4EA
S11339609CE005C094E003C098E001C090E000E052
S113397019E02DE330E080E0401751076207730738
S113398040F436952795179507958F5F8630A1F7F4
S113399087E021E028278381813011F080E501C090
S11339A080E7322F3695932B982B958321702683AD
S11339B01F910F910C947B210C94B121862F0C94B0
S11339C0C52180917707882361F09FB7F8942091EF
S11339D0770780917507213019F48DBB9FBF089537
S11339E08FBF0895CF93DF93EC010E949F228CE454
S11339F092E09983888380E58D8381E08E83DF91D3
S1133A00CF91089520E040E060E087E697E00C94D1
S1133A10F21C81E008958BEF08950895CF93DF930E
S1133A20EC018A818530B1F0E881F981E05CFF4FD7
S1133A300190F081E02D65E0CE01099547E061E059
S1133A40CE010E94312340E860E4CE010E9431237C
S1133A5085E08A838A81853019F40E94E321FACFB4
S1133A608D89DF91CF9108950C94E4210F931F93D6
S1133A70CF938C01C62F65312CF462305CF0623137
S1133A8054F001C0C4E147E06DE4C8010E94312351
S1133A90C35006C0C2E044E06DE4C8010E94312373
S1133AA04EEF4C0F406869E0C801CF911F910F9110
S1133AB00C943123CF93DF93FC012281213091F0C8
S1133AC0EC010190F081E02DE05CFF4F0190F0816A
S1133AD0E02D61E0099540E061E0CE010E943123D0
S1133AE081E08A8381E0DF91CF9108951F93CF9382
S1133AF0DF93EC01142FA9010E94D52286E692E0FF
S1133B0099838883FE01E25EFE4F10823496108210
S1133B101C8F8FEF8D8F319781E080831B8EDF9117
S1133B20CF911F910895FC01868D8430D8F0878D44
S1133B30858380A1868381A1878382A180878481F4
S1133B40811107C095818381981719F085818F3F72
S1133B5049F4818992890196928B818BE25EFE4FB2
S1133B6081E0808308952FB7F894FC01E25EFE4F54
S1133B701082FC01168E2FBF0895CF92DF92EF9230
S1133B80FF920F931F93CF93DF93EC017B018A0184
S1133B90E881F9810680F781E02D0995D82E8823E4
S1133BA009F1E114F104D9F001151105C1F0CFB602
S1133BB0F8948E8D90E00397F801208130E0281767
S1133BC039071CF08E8D84508083F801408150E0C9
S1133BD0BE016D5D7F4FC7010E949926CFBECE0105
S1133BE00E94B31D8D2DDF91CF911F910F91FF90F6
S1133BF0EF90DF90CF9008958F929F92AF92BF92F3
S1133C00CF92DF92EF92FF921F93CF93DF93EC0159
S1133C104A015B0120E034E244E759E4C501B40100
S1133C200E94D31120E034E244E752E40E9474106D
S1133C300E94ED106B017C01A7016627772766E0DF
S1133C40CE010E94312377276F2D5E2D4D2D67E025
S1133C50CE010E9431234C2D68E0CE010E94312315
S1133C60C15EDE4F11E020E030EC42E454E4C501D3
S1133C70B4010E94CE1187FD10E0188381E0DF912A
S1133C80CF911F91FF90EF90DF90CF90BF90AF90B6
S1133C909F908F900895CF93DF93FC01228122306F
S1133CA091F0EC010190F081E02DE05CFF4F019078
S1133CB0F081E02D62E0099541E061E0CE010E94CF
S1133CC0312382E08A83DF91CF9108950F931F936C
S1133CD0CF93DF93EC0162E10E94EC22182F6CE198
S1133CE0CE010E94EC22082F4FEF62E1CE010E9428
S1133CF031238A818430B9F4812F807A41F4FE0122
S1133D00EF5DFE4F8081882371F006FD0CC08F8526
S1133D1098890196988B8F87CE01DF91CF911F915F
S1133D200F910C94B31D8A81843011F416FD0CC0DC
S1133D308A81833009F068C013FF66C08B899C892F
S1133D4001969C8B8B8B67C063E1CE010E94EC22B1
S1133D50182F60E1CE010E94EC22482F6DE0CE01C5
S1133D600E943123212FAE01415E5F4F60E0CE01FE
S1133D700E9479231E8F69E1CE010E94EC228E01FC
S1133D80005E1E4F87FD8D5F85958595F8018083C4
S1133D906AE1CE010E94EC2290E09E878D87F801B3
S1133DA0208127FF09C08D859E85820F911D27FDE7
S1133DB09A959E878D870DC08D859E8524E0880FFA
S1133DC0991F2A95E1F76FE070E00E9453247E87E3
S1133DD06D87FE01E15EFE4F8081882329F08D8589
S1133DE09E858D59910904C08D859E85845A9109BB
S1133DF09E878D87CE010E94931DFE01E25EFE4FD9
S1133E008081882379F007C08A81853059F412FFB4
S1133E1009C011701D8BCE01DF91CF911F910F91BD
S1133E200C944B1EDF91CF911F910F9108958091B7
S1133E306F0790917007009711F00C94661E089517
S1133E408091710790917207009711F00C94661E8F
S1133E5008958091730790917407009711F00C9462
S1133E60661E0895CF93DF93FC0122812430B9F0BC
S1133E70EC010190F081E02DE05CFF4F0190F081B6
S1133E80E02D64E0099545E061E0CE010E94312314
S1133E9040E060E4CE010E94312384E08A83DF9114
S1133EA0CF910895CF93DF93FC012281233039F021
S1133EB0EC010E94321FC25EDE4F888101C080E0A7
S1133EC0DF91CF910895CF93DF93FC0122812330BA
S1133ED0B9F0EC010190F081E02DE05CFF4F01901E
S1133EE0F081E02D63E0099543E061E0CE010E949A
S1133EF0312340E460E4CE010E94312383E08A83CD
S1133F00DF91CF910895EF92FF920F931F93CF9378
S1133F10DF934C3F10F000E03EC0142F7B01EC0116
S1133F20E881F9810088F189E02D0995CE010E948C
S1133F304B1EE881F9810688F789E02DCE010995A9
S1133F40082F882341F340E06DE0CE010E94312325
S1133F50498560E0CE010E9431234A8560E0CE01AC
S1133F600E9431234B8560E0CE010E9431234C85B1
S1133F7060E0CE010E943123212FA70160E0CE0131
S1133F800E94D42344E0410F62E2CE010E94312317
S1133F90CE010E94631F802FDF91CF911F910F915B
S1133FA0FF90EF900895CF93DF93EC014B8F442360
S1133FB0A1F0603124F467FF03C060E001C06FE04A
S1133FC0462F406769E0CE010E94312344E06DE44E
S1133FD0CE01DF91CF910C943123DF91CF910C94DA
S1133FE0361D0F931F93CF93DF93EC018B01FB01DD
S1133FF040816DE10E943123F80141816EE1CE01DF
S11340000E943123F801428166E2CE01DF91CF9113
S11340101F910F910C9431230F931F93CF93DF9330
S113402000D01F92CDB7DEB770E066307105B4F4EE
S11340308C01CB01880F991F680F791F6D5E7B4F30
S113404043E050E0CE0101960E949026BE016F5FCE
S11340507F4FC8010E94F11F81E001C080E00F90F2
S11340600F900F90DF91CF911F910F9108951F939F
S1134070CF93DF93EC01162F472F60E20E94312388
S1134080412F61E2CE01DF91CF911F910C94312336
S11340900F931F93CF93DF93EC010E94A822082F64
S11340A0811102C000E078C08C8D8F3F39F08230DE
S11340B009F46CC08330B1F711E069C01FEF40E828
S11340C061E0CE010E9431236AE070E080E090E07C
S11340D00E94D11861E0CE010E94EC22803811F7D1
S11340E08C8D8F3F81F160E00E9491198D8D8F3FFF
S11340F049F480916E078430A8F691E0980F90936C
S11341006E078D8F8D8DE82FF0E0EE0FFF1FE159C4
S1134110F84FD183C083811105C043E050E067E1CB
S11341207FE10EC0813029F443E050E060E27FE19A
S113413007C0823009F0B6CF43E050E069E27FE186
S1134140812F0E94E72140E06EE0CE010E943123DE
S113415040E06FE0CE010E943123CE010E944B1E4D
S113416060E0CE010E940C2068E070E0CE010E9465
S1134170372040E050E069ED73E4CE010E94FC1D5D
S11341801B8E6DE0CE010E94361D06C010E0612F2B
S1134190CE010E942E2493CF802FDF91CF911F91C7
S11341A00F9108958F929F92AF92BF92EF92FF92D8
S11341B01F93CF93DF93CDB7DEB7A8970FB6F894CC
S11341C0DEBF0FBECDBF7C016DE10E94EC22182F33
S11341D06EE1C7010E94EC2298E2E0E6F1E0DE0124
S11341E0119601900D929A95E1F7682F70E084E0A2
S11341F0759567958A95E1F770E080E090E00E94FC
S11342001C119B01AC0160E070E080E090E40E942E
S1134210401220E030E04AE754E40E94D311E12F39
S1134220F0E024E0F595E7952A95E1F7EE0FFF1FFE
S1134230EE0FFF1F21E030E02C0F3D1FE20FF31FB4
S113424020813181428153810E9474104B015C01B1
S113425066E2C7010E94EC22182F177F20E030E0AD
S113426040E851E4C501B4010E94CE11412F181653
S11342700CF4486066E2C701A8960FB6F894DEBF56
S11342800FBECDBFDF91CF911F91FF90EF90BF90F4
S1134290AF909F908F900C9431230F931F93CF93E3
S11342A08C01673060F0673061F0683061F069302C
S11342B061F06A3061F06B3061F4C0EB0BC0C0E6B2
S11342C009C0C0E707C0C0E805C0C0E903C0C0EA30
S11342D001C0C0EC6EE1C8010E94EC228F70482F2F
S11342E04C2B6EE1C8010E943123C801CF911F916C
S11342F00F910C94D220CF93CFB7F8948091780784
S1134300811127C0EBEEF3E08491E7EDF3E09491A3
S1134310E82FF0E0EE0FFF1FE75FFB4FA591B4918C
S1134320EC91E92321F461E08AE00E94CD1961E077
S11343308AE00E9491198CB580618CBD8CB5806433
S11343408CBD61E08DE00E94911961E08BE00E94D8
S11343509119809178078F5F80937807CFBFCF91B1
S113436008959FB7F89480917807882319F08150B5
S11343708093780780917807811105C08CB58F7B75
S11343808CBD109277079FBF08959FB7F894882338
S113439049F0813011F482E006C082E0809377070F
S11343A080E001C081E020917607822B809376071C
S11343B080917707811103C081E0809377079FBFC5
S11343C008950E948B2608950C94602508958230E8
S11343D0E8F4E82FF0E0EE0FFF1FE05FFE4F71837B
S11343E06083813041F0809169008C7F482B409339
S11343F06900E89A089580916900837F440F551FEE
S1134400440F551F482B40936900E99A08951F9261
S11344100F920FB60F9211242F933F934F935F93F4
S11344206F937F938F939F93AF93BF93EF93FF9378
S1134430E0911001F09111010995FF91EF91BF9165
S1134440AF919F918F917F916F915F914F913F9128
S11344502F910F900FBE0F901F9018951F920F92DF
S11344600FB60F9211242F933F934F935F936F9343
S11344707F938F939F93AF93BF93EF93FF93E091B9
S11344801201F09113010995FF91EF91BF91AF9142
S11344909F918F917F916F915F914F913F912F9158
S11344A00F900FBE0F901F901895CF92DF92EF924E
S11344B0FF92611571058105910549F06B017C013D
S11344C00E943426A70196010E94892403C060E05B
S11344D070E0CB01FF90EF90DF90CF900895CF92E2
S11344E0DF92EF92FF920F931F9362177307840773
S11344F0950784F489019A016B017C01C901B80113
S11345006C197D098E099F090E9455226C0D7D1D31
S11345108E1D9F1D1F910F91FF90EF90DF90CF9004
S1134520089508950895089508950895FC016383F6
S11345300895FC0164830895FC0162830895FC01DD
S11345408CEA92E091838083628343832483089579
S1134550CF93DF93EC01888D998DDC01ED91FC9173
S11345600680F781E02D09958A8D8F3F19F061E06F
S11345700E949119E881F98106ACF7ADE02DCE01D6
S1134580099564E670E080E090E00E94D11881E033
S1134590DF91CF91089560E0FC01828D0C94CD19D8
S11345A061E0FC01828D0C94CD19EF92FF921F9370
S11345B0CF93DF93EC01162F7A010E94421C86EC04
S11345C092E099838883F98EE88E1A8FDF91CF91D8
S11345D01F91FF90EF9008950F931F93CF93DF9354
S11345E0EC01162F0FB7F894888D998DDC01ED91AD
S11345F0FC910088F189E02D0995E881F98104ACEA
S1134600F5ADE02DCE010995888D998D612F6F77D9
S1134610DC01ED91FC910190F081E02D0995888DEC
S1134620998DDC01ED91FC910190F081E02D60E029
S11346300995182FE881F98106ACF7ADE02DCE017C
S11346400995888D998DDC01ED91FC910288F3899F
S1134650E02D09950FBF812FDF91CF911F910F910D
S11346600895FF920F931F93CF93DF93EC01162FBE
S1134670F42E0FB7F894888D998DDC01ED91FC919F
S11346800088F189E02D0995E881F98104ACF5AD44
S1134690E02DCE010995888D998D612F6068DC012C
S11346A0ED91FC910190F081E02D0995182F888DF2
S11346B0998DDC01ED91FC910190F081E02D6F2D3D
S11346C00995E881F98106ACF7ADE02DCE01099595
S11346D0888D998DDC01ED91FC910288F389E02DA0
S11346E009950FBF812FDF91CF911F910F91FF90FB
S11346F00895BF92CF92DF92EF92FF920F931F9390
S1134700CF93DF93EC01062FB42EC52E122FDFB604
S1134710F894888D998DDC01ED91FC910088F189E4
S1134720E02D0995E881F98104ACF5ADE02DCE01C9
S11347300995888D998D602F6F77DC01ED91FC913F
S11347400190F081E02D0995082FEB2CFC2C11230E
S113475079F0888D998DDC01ED91FC910190F081C7
S1134760E02D60E00995F70181937F011150EFCFAF
S1134770E881F98106ACF7ADE02DCE010995888D6D
S1134780998DDC01ED91FC910288F389E02D099566
S1134790DFBE802FDF91CF911F910F91FF90EF909B
S11347A0DF90CF90BF900895BF92CF92DF92EF92A7
S11347B0FF920F931F93CF93DF93EC01062FB42E38
S11347C0C52E122FDFB6F894888D998DDC01ED91FA
S11347D0FC910088F189E02D0995E881F98104AC08
S11347E0F5ADE02DCE010995888D998D602F606817
S11347F0DC01ED91FC910190F081E02D0995082FE9
S1134800EB2CFC2C112371F0888D998DF7016191AB
S11348107F01DC01ED91FC910190F081E02D09957F
S11348201150F0CFE881F98106ACF7ADE02DCE014F
S11348300995888D998DDC01ED91FC910288F389AD
S1134840E02D0995DFBE802FDF91CF911F910F914D
S1134850FF90EF90DF90CF90BF900895DC015896C1
S11348608D919C915997DC01ED91FC910488F58917
S1134870E02D09940E945911880B990B0895AA1BE5
S1134880BB1B51E107C0AA1FBB1FA617B70710F037
S1134890A61BB70B881F991F5A95A9F78095909569
S11348A0BC01CD01089597FB072E16F4009407D0A0
S11348B077FD09D00E943F2407FC05D03EF4909573
S11348C081959F4F0895709561957F4F0895A1E25A
S11348D01A2EAA1BBB1BFD010DC0AA1FBB1FEE1F76
S11348E0FF1FA217B307E407F50720F0A21BB30BC1
S11348F0E40BF50B661F771F881F991F1A9469F73D
S113490060957095809590959B01AC01BD01CF0198
S11349100895052E97FB1EF400940E94A02457FDD1
S113492007D00E94672407FC03D04EF40C94A02403
S113493050954095309521953F4F4F4F5F4F0895C7
S113494090958095709561957F4F8F4F9F4F0895F7
S11349500E94B924A59F900DB49F900DA49F800D33
S1134960911D11240895EE0FFF1F0590F491E02D81
S11349700994A29FB001B39FC001A39F700D811D34
S11349801124911DB29F700D811D1124911D089554
S11349900F931F93CF93DF938230910510F482E03D
S11349A090E0E0917B07F0917C0720E030E0A0E00C
S11349B0B0E0309719F14081518102811381481789
S11349C05907C8F08417950769F4109731F01296C7
S11349D00C93129713961C9327C000937B07109394
S11349E07C0722C02115310519F04217530718F42A
S11349F09A01BD01EF01DF01F801DBCF211531057B
S1134A00F9F0281B390B2430310580F48A819B810D
S1134A106115710521F0FB019383828304C0909397
S1134A207C0780937B07FE01329644C0FE01E20FAF
S1134A30F31F8193919322503109398328833AC01B
S1134A402091790730917A07232B41F420910201B8
S1134A503091030130937A07209379072091000164
S1134A60309101012115310541F42DB73EB7409134
S1134A70040150910501241B350BE0917907F09155
S1134A807A07E217F307A0F42E1B3F0B2817390708
S1134A9078F0AC014E5F5F4F2417350748F04E0F96
S1134AA05F1F50937A07409379078193919302C0D3
S1134AB0E0E0F0E0CF01DF91CF911F910F910895D5
S1134AC0CF93DF93009709F481C0FC0132971382DE
S1134AD01282A0917B07B0917C07109781F420810A
S1134AE03181820F931F2091790730917A0728171B
S1134AF0390751F5F0937A07E093790767C0ED0120
S1134B0020E030E0CE17DF0740F44A815B819E014C
S1134B1041155105F1F0EA01F5CFD383C2834081F9
S1134B205181840F951FC817D90759F48881998139
S1134B30840F951F0296918380838A819B8193833E
S1134B4082832115310529F4F0937C07E0937B07D8
S1134B503DC0E901FB83EA8349915991C40FD51FF4
S1134B60EC17FD0761F480819181840F951F0296F3
S1134B70E90199838883828193819B838A83E0E01E
S1134B80F0E012968D919C911397009719F0FD0116
S1134B90DC01F7CF8D919C9111979D012E5F3F4FC2
S1134BA0820F931F2091790730917A0728173907CC
S1134BB069F4309729F410927C0710927B0702C0A5
S1134BC013821282B0937A07A0937907DF91CF9171
S1134BD008958F929F92AF92BF92CF92DF92EF92FD
S1134BE0FF92CF93DF93EC01688179818A819B8165
S1134BF0611571058105910521F464E279ED8BE578
S1134C0097E02DE133EF41E050E00E94892449010F
S1134C105A019B01AC01A7EAB1E40E94A8246B01EC
S1134C207C01ACEEB4EFA50194010E94C226DC0124
S1134C30CB018C0D9D1DAE1DBF1DB7FF03C0019799
S1134C40A109B04888839983AA83BB83BC01CD01A1
S1134C509F77DF91CF91FF90EF90DF90CF90BF903F
S1134C60AF909F908F9008958F929F92AF92BF9232
S1134C70CF92DF92EF92FF9260910601709107014B
S1134C8080910801909109016115710581059105D3
S1134C9021F464E279ED8BE597E02DE133EF41E017
S1134CA050E00E94892449015A019B01AC01A7EA02
S1134CB0B1E40E94A8246B017C01ACEEB4EFA50121
S1134CC094010E94C226DC01CB018C0D9D1DAE1DFA
S1134CD0BF1DB7FF03C00197A109B0488093060127
S1134CE090930701A0930801B0930901BC01CD0181
S1134CF09F77FF90EF90DF90CF90BF90AF909F9001
S1134D008F900895609306017093070180930801C2
S1134D1090930901089581E090E0F8940C94C726DB
S1134D20FB01DC0102C005900D9241505040D8F7C0
S1134D300895FB01DC0102C001900D9241505040E6
S1134D40D8F70895FB01DC0101900D920020E1F7F2
S1134D500895F999FECF92BD81BDF89A992780B53F
S1134D600895262FF999FECF1FBA92BD81BD20BDAB
S1134D700FB6F894FA9AF99A0FBE01960895B7FF00
S1134D800C94A8240E94A824821B930B0895F894E1
S1054D90FFCF4F
S1134D9200007D0720000100000033335340080166
S1134DA2E621E62101060708090A0B0C0D0E0F1075
S1134DB21112131415161718191A1B1C1D1E1F2065
S1134DC2212223242526274B9A99F94066662641F7
S1134DD29A9979416666A6410000FA41CDCC2642F1
S1134DE200007A420000FA4200007A430000FA43CB
S1134DF200C0F3450080224600C073460080A246EC
S1134E020024F44600E42247002474470024F447B3
S1134E12002474480024F448504130303335007380
S1134E22657269616C206964206E6F74206D6174AF
S1134E326368656420300073657269616C2069641B
S1134E42206E6F74206D6174636865640070756DA3
S1134E5270206973206F6666004964204E6F742067
S1134E624D61746368005220504841534520564FA7
S1134E724C544147452000000000007F14ED1540CA
S1134E8214CC1412142C141E140D0A006E616E003C
S1134E92696E66006F766600000000000000000084
S1134EA2361BE121E121E121E121721B841BC81B94
S1134EB2911BFB1B641B3B1B3E1B411B441B471BDF
S1134EC2381B4E1B511B541B571B5A1B5E1B611B69
S1134ED2641B661B6A1B6E1B00000000571C5E1CD1
S1134EE2621C831CDC1C962299229C22661CE11CF7
S1134EF2DE1C000000000D1D341D4820521FBD1D84
S1134F02831F0B1D721B841BC81B911BFB1B0E1DD5
S1134F123B1B3E1B411B441B471B381B4E1B511B97
S1134F22541B571B5A1B5E1B611B5A1D661B6A1BB3
S1134F326E1BCB22D022091D00000000E121912228
S1134F429222E121E121962299229C229322942207
S1134F5295220000000000000000A822E121E121C6
S1134F62E121E121721B841BC81B911BFB1B641BE7
S1134F723B1B3E1B411B441B471B381B4E1B511B37
S1134F82541B571B5A1B5E1B611B641B661B6A1B4B
S1094F926E1BCB22D022AD
S9030000FC
